{
  "contractName": "HichCoin",
  "abi": [
    {
      "inputs": [],
      "stateMutability": "nonpayable",
      "type": "constructor"
    },
    {
      "inputs": [
        {
          "internalType": "address",
          "name": "",
          "type": "address"
        }
      ],
      "name": "allowances",
      "outputs": [
        {
          "internalType": "uint256",
          "name": "",
          "type": "uint256"
        }
      ],
      "stateMutability": "view",
      "type": "function"
    },
    {
      "inputs": [
        {
          "internalType": "address",
          "name": "",
          "type": "address"
        }
      ],
      "name": "balances",
      "outputs": [
        {
          "internalType": "uint256",
          "name": "",
          "type": "uint256"
        }
      ],
      "stateMutability": "view",
      "type": "function"
    },
    {
      "inputs": [],
      "name": "contract_owner",
      "outputs": [
        {
          "internalType": "address",
          "name": "",
          "type": "address"
        }
      ],
      "stateMutability": "view",
      "type": "function"
    },
    {
      "inputs": [],
      "name": "name",
      "outputs": [
        {
          "internalType": "string",
          "name": "",
          "type": "string"
        }
      ],
      "stateMutability": "pure",
      "type": "function"
    },
    {
      "inputs": [],
      "name": "symbol",
      "outputs": [
        {
          "internalType": "string",
          "name": "",
          "type": "string"
        }
      ],
      "stateMutability": "pure",
      "type": "function"
    },
    {
      "inputs": [],
      "name": "decimals",
      "outputs": [
        {
          "internalType": "uint8",
          "name": "",
          "type": "uint8"
        }
      ],
      "stateMutability": "pure",
      "type": "function"
    },
    {
      "inputs": [],
      "name": "total_supply",
      "outputs": [
        {
          "internalType": "uint256",
          "name": "",
          "type": "uint256"
        }
      ],
      "stateMutability": "pure",
      "type": "function"
    },
    {
      "inputs": [
        {
          "internalType": "address",
          "name": "owner",
          "type": "address"
        }
      ],
      "name": "balanceOf",
      "outputs": [
        {
          "internalType": "uint256",
          "name": "balance",
          "type": "uint256"
        }
      ],
      "stateMutability": "view",
      "type": "function"
    },
    {
      "inputs": [
        {
          "internalType": "address",
          "name": "new_owner",
          "type": "address"
        }
      ],
      "name": "change_owner",
      "outputs": [],
      "stateMutability": "nonpayable",
      "type": "function"
    },
    {
      "inputs": [
        {
          "internalType": "address",
          "name": "_to",
          "type": "address"
        },
        {
          "internalType": "uint256",
          "name": "_value",
          "type": "uint256"
        }
      ],
      "name": "transfer",
      "outputs": [
        {
          "internalType": "bool",
          "name": "success",
          "type": "bool"
        }
      ],
      "stateMutability": "nonpayable",
      "type": "function"
    }
  ],
  "bytecode": "0x608060405234801561001057600080fd5b50336000806101000a81548173ffffffffffffffffffffffffffffffffffffffff021916908373ffffffffffffffffffffffffffffffffffffffff160217905550620f4240600160008060009054906101000a900473ffffffffffffffffffffffffffffffffffffffff1673ffffffffffffffffffffffffffffffffffffffff1673ffffffffffffffffffffffffffffffffffffffff168152602001908152602001600020819055506109e1806100c86000396000f3fe608060405234801561001057600080fd5b506004361061009e5760003560e01c8063384f58eb11610066578063384f58eb1461015b5780633940e9ee1461017957806370a082311461019757806395d89b41146101c7578063a9059cbb146101e55761009e565b806306fdde03146100a3578063253c8bd4146100c157806327e235e3146100dd5780632b603c711461010d578063313ce5671461013d575b600080fd5b6100ab610215565b6040516100b89190610611565b60405180910390f35b6100db60048036038101906100d69190610696565b610252565b005b6100f760048036038101906100f29190610696565b610323565b60405161010491906106dc565b60405180910390f35b61012760048036038101906101229190610696565b61033b565b60405161013491906106dc565b60405180910390f35b610145610353565b6040516101529190610713565b60405180910390f35b61016361035c565b604051610170919061073d565b60405180910390f35b610181610380565b60405161018e91906106dc565b60405180910390f35b6101b160048036038101906101ac9190610696565b61038b565b6040516101be91906106dc565b60405180910390f35b6101cf6103d4565b6040516101dc9190610611565b60405180910390f35b6101ff60048036038101906101fa9190610784565b610411565b60405161020c91906107df565b60405180910390f35b60606040518060400160405280600881526020017f48696368436f696e000000000000000000000000000000000000000000000000815250905090565b60008054906101000a900473ffffffffffffffffffffffffffffffffffffffff1673ffffffffffffffffffffffffffffffffffffffff163373ffffffffffffffffffffffffffffffffffffffff16146102e0576040517f08c379a00000000000000000000000000000000000000000000000000000000081526004016102d790610846565b60405180910390fd5b806000806101000a81548173ffffffffffffffffffffffffffffffffffffffff021916908373ffffffffffffffffffffffffffffffffffffffff16021790555050565b60016020528060005260406000206000915090505481565b60026020528060005260406000206000915090505481565b60006008905090565b60008054906101000a900473ffffffffffffffffffffffffffffffffffffffff1681565b6000620f4240905090565b6000600160008373ffffffffffffffffffffffffffffffffffffffff1673ffffffffffffffffffffffffffffffffffffffff168152602001908152602001600020549050919050565b60606040518060400160405280600481526020017f4849434800000000000000000000000000000000000000000000000000000000815250905090565b6000813073ffffffffffffffffffffffffffffffffffffffff166370a08231336040518263ffffffff1660e01b815260040161044d919061073d565b602060405180830381865afa15801561046a573d6000803e3d6000fd5b505050506040513d601f19601f8201168201806040525081019061048e919061087b565b10156104cf576040517f08c379a00000000000000000000000000000000000000000000000000000000081526004016104c6906108f4565b60405180910390fd5b81600160008573ffffffffffffffffffffffffffffffffffffffff1673ffffffffffffffffffffffffffffffffffffffff168152602001908152602001600020600082825461051e9190610943565b9250508190555081600160003373ffffffffffffffffffffffffffffffffffffffff1673ffffffffffffffffffffffffffffffffffffffff16815260200190815260200160002060008282546105749190610977565b9250508190555092915050565b600081519050919050565b600082825260208201905092915050565b60005b838110156105bb5780820151818401526020810190506105a0565b60008484015250505050565b6000601f19601f8301169050919050565b60006105e382610581565b6105ed818561058c565b93506105fd81856020860161059d565b610606816105c7565b840191505092915050565b6000602082019050818103600083015261062b81846105d8565b905092915050565b600080fd5b600073ffffffffffffffffffffffffffffffffffffffff82169050919050565b600061066382610638565b9050919050565b61067381610658565b811461067e57600080fd5b50565b6000813590506106908161066a565b92915050565b6000602082840312156106ac576106ab610633565b5b60006106ba84828501610681565b91505092915050565b6000819050919050565b6106d6816106c3565b82525050565b60006020820190506106f160008301846106cd565b92915050565b600060ff82169050919050565b61070d816106f7565b82525050565b60006020820190506107286000830184610704565b92915050565b61073781610658565b82525050565b6000602082019050610752600083018461072e565b92915050565b610761816106c3565b811461076c57600080fd5b50565b60008135905061077e81610758565b92915050565b6000806040838503121561079b5761079a610633565b5b60006107a985828601610681565b92505060206107ba8582860161076f565b9150509250929050565b60008115159050919050565b6107d9816107c4565b82525050565b60006020820190506107f460008301846107d0565b92915050565b7f4f7065726174696f6e206e6f7420616c6c6f7765640000000000000000000000600082015250565b600061083060158361058c565b915061083b826107fa565b602082019050919050565b6000602082019050818103600083015261085f81610823565b9050919050565b60008151905061087581610758565b92915050565b60006020828403121561089157610890610633565b5b600061089f84828501610866565b91505092915050565b7f496e73756666696369656e742062616c616e6365000000000000000000000000600082015250565b60006108de60148361058c565b91506108e9826108a8565b602082019050919050565b6000602082019050818103600083015261090d816108d1565b9050919050565b7f4e487b7100000000000000000000000000000000000000000000000000000000600052601160045260246000fd5b600061094e826106c3565b9150610959836106c3565b925082820190508082111561097157610970610914565b5b92915050565b6000610982826106c3565b915061098d836106c3565b92508282039050818111156109a5576109a4610914565b5b9291505056fea26469706673582212209f74b0742d739c8caa1720e64652627b770cab105b18e746e235f2f590fb464f64736f6c63430008130033",
  "immutableReferences": {},
  "source": "// SPDX-License-Identifier: MIT\r\npragma solidity ^0.8.19;\r\n\r\ncontract HichCoin {\r\n\r\n    address public contract_owner;\r\n    mapping(address => uint) public balances;\r\n    mapping(address => uint256) public allowances;\r\n\r\n    constructor() {\r\n        contract_owner = msg.sender;\r\n        balances[contract_owner] = 1000000;\r\n    }\r\n\r\n    function name() public pure returns (string memory) {\r\n        return \"HichCoin\";\r\n    }\r\n\r\n    function symbol() public pure returns (string memory){\r\n        return \"HICH\";\r\n    }\r\n\r\n    function decimals() public pure returns (uint8){\r\n        return 8;\r\n    }\r\n\r\n    function total_supply() public pure returns (uint256){\r\n        return 1000000;\r\n    }\r\n\r\n    function balanceOf(address owner) public view returns (uint256 balance){\r\n        return balances[owner];\r\n    }\r\n\r\n    function change_owner(address new_owner) public {\r\n        require(msg.sender == contract_owner, \"Operation not allowed\");\r\n        contract_owner = new_owner;\r\n    }\r\n\r\n    function transfer(address _to, uint _value) public returns (bool success){\r\n        require(this.balanceOf(msg.sender)>= _value, \"Insufficient balance\");\r\n        balances[_to] += _value;\r\n        balances[msg.sender] -= _value;\r\n        return success;\r\n    }\r\n}\r\n",
  "sourcePath": "C:\\Users\\Hicham\\Documents\\Solidity\\contracts\\HichCoin.sol",
  "compiler": {
    "name": "solc",
    "version": "0.8.19+commit.7dd6d404.Emscripten.clang"
  },
  "schemaVersion": "3.4.13",
  "updatedAt": "2023-05-06T15:04:13.896Z",
  "devdoc": {
    "kind": "dev",
    "methods": {},
    "version": 1
  },
  "userdoc": {
    "kind": "user",
    "methods": {},
    "version": 1
  }
}